:020000040800F2
:10000000008001204D4B00085507000857070008E5
:10001000590700085B0700085D07000800000000A2
:100020000000000000000000000000005F07000862
:10003000610700080000000063070008650700086A
:100040009D4B00089D4B00089D4B00089D4B0008F0
:100050009D4B00089D4B00089D4B00089D4B0008E0
:100060009D4B00089D4B00089D4B00089D4B0008D0
:100070009D4B00089D4B00089D4B00089D4B0008C0
:100080009D4B00089D4B00089D4B000800000000A0
:100090000000000000000000000000009D4B000870
:1000A0009D4B00089D4B00089D4B00089D4B000890
:1000B0009D4B00089D4B00089D4B00089D4B000880
:1000C0009D4B00089D4B00089D4B00089D4B000870
:1000D0009D4B00089D4B00089D4B00080000000050
:1000E0009D4B00089D4B00089D4B00080000000040
:1000F0000000000000000000000000009D4B000810
:10010000000000009D4B00089D4B00089D4B00081F
:1001100000000000000000000000000000000000DF
:100120009D4B00089D4B00089D4B00089D4B00080F
:100130009D4B0008000000000000000000000000CF
:100140000000000000000000000000006D07000833
:100150009D4B00089D4B00089D4B00089D4B0008DF
:100160009D4B00089D4B00080000000000000000AF
:10017000000000000000000000000000000000007F
:10018000000000009D4B000800000000000000007F
:040190009D4B00087B
:1001A000034613F8012B002AFBD1181A01387047B7
:1001B00001F0FF01102A2BDB10F0070F08D010F818
:1001C000013B013A8B422DD010F0070F42B3F6D11C
:1001D000F0B441EA012141EA014122F007047FF035
:1001E00000070023F0E80256083C85EA010586EA8C
:1001F000010685FA47F5A3FA87F586FA47F6A5FAC8
:1002000087F68EB9EED1F0BC01F0FF0102F00702D3
:1002100032B110F8013B013A83EA010313B1F8D17E
:100220000020704701387047002D06BF354603385F
:10023000073815F0010F07D1013015F4807F02BF98
:10024000013015F4C03F0130F0BC0138704700BFE9
:1002500053B94AB9002908BF00281CBF4FF0FF312D
:100260004FF0FF3000F00CB8ADF1080C6DE904CE92
:1002700005F038F9DDF804E0DDE9022304B0704749
:10028000704700BF0348044B834202D0034B03B1C5
:100290001847704748010020480100200000000076
:1002A0000548064B1B1AD90F01EBA301491002D0D8
:1002B000034B03B118477047480100204801002054
:1002C0000000000010B5064C237843B9FFF7DAFFB1
:1002D000044B13B10448AFF300800123237010BD19
:1002E0004801002000000000AC57000808B5054B8D
:1002F0001BB105490548AFF30080BDE80840FFF792
:10030000CFBF00BF000000004C010020AC57000828
:1003100084B000220192104B196B41F080011963E7
:10032000196B01F08001019101990292196B41F062
:1003300001011963196B01F0010102910299039205
:100340001A6B42F002021A631B6B03F00203039361
:10035000039B04B0704700BF0038024072B6FEE74E
:1003600008B50A480A4B03600A4B436000238360C8
:10037000C3604FF48042026143618361C3610362E1
:1003800003F070F800B908BDFFF7E8FF7401002022
:1003900000540040A086010000B595B03022002135
:1003A00008A804F01DFC002303930493059306930F
:1003B00007930193214A116C41F080511164126C32
:1003C00002F080520192019A02931D4A136823F4AD
:1003D000404343F400431360136803F44043029323
:1003E000029B012308934FF48033099302230E9359
:1003F0004FF480030F93192310934FF4A8731193B4
:10040000042312930723139308A802F03FF980B93D
:100410000F23039302210491002305934FF480528C
:100420000692079303A802F081FB20B915B05DF88E
:1004300004FBFFF793FFFFF791FF00BF0038024076
:100440000070004030B58BB002F0ACFDFFF7A4FFA8
:10045000FFF75EFFFFF784FF00F0E6F9374D9023CA
:100460002B7000246C700423AB700123EB702B7194
:100470006C71AC71EC712C7203236B72284600F026
:1004800087F8284600F092F80394049405940694A3
:10049000079408948DF824400021284800F01AF9A8
:1004A0000246C3171C0344EA10544FEA003EE0170B
:1004B0004FF6ED7C0CEAE47C2EF040414FEA9E754D
:1004C00045EA840525F04045294401EB1471614457
:1004D0001B4DA5FB015CA1EB0C050CEB550C4FEA89
:1004E0009C3CCCEBCC3CA1EB0C0120F4FF4020F079
:1004F0007D000144BEEB010E64EBE174114912482A
:1005000000FB0EF001FB0400AEFB0114204400913F
:1005100001900E4903A804F043FB03A8FFF740FE37
:10052000014603A800F092FA192203A9002004F062
:1005300057FB4FF4FA6002F061FDADE76401002063
:1005400005000200FF7FFFBFFFDFFFEFC857000875
:1005500000B583B01346052200920A4601460348BF
:1005600003F05EF803B05DF804FB00BF74010020E7
:1005700000B583B01346052200920A46014603489F
:1005800003F00AF903B05DF804FB00BF740100201A
:1005900000B583B006238DF8073001220DF1070165
:1005A0000078FFF7D5FF03B05DF804FB10B582B00B
:1005B0000446274B1B88ADF8043000238DF8063025
:1005C000427883781B0343EAC2331BB2C27843EA02
:1005D00042231BB2027943EA02231BB2427943EA67
:1005E0004213827943EA0213C27943EAC203027AD0
:1005F00043EA8203427A1A4301218DF80410C3F3BF
:1006000007238DF805308DF80620032201A9007814
:10061000FFF79EFF02238DF80430A3891A0A8DF894
:1006200005208DF80630032201A92078FFF790FFFE
:1006300003228DF804206389190A8DF805108DF8BE
:10064000063001A92078FFF783FF02B010BD00BF7C
:10065000C457000810B582B004460D4B1B88ADF896
:10066000043000238DF80630012201A90078FFF73D
:100670006FFF022201A92078FFF77AFF9DF804009E
:10068000000200B29DF80530184302B010BD00BF53
:10069000C457000810B582B004460D4B1B88ADF856
:1006A000043000238DF8063001228DF8042001A9C2
:1006B0000078FFF74DFF022201A92078FFF758FFCD
:1006C0009DF804009DF8053043EA002002B010BDFB
:1006D000C457000810B582B004461D4B1B88ADF806
:1006E000043000238DF806300B1D03F007030122B0
:1006F0008DF804201B0163F07F03C27843EA4203B4
:100700005BB243F001038DF80530427983791B0118
:1007100043EA42135BB2C27943EAC2035BB2027A94
:1007200043EA82035BB2427A13438DF80630032218
:1007300001A90078FFF70CFF2046FFF7ABFF10F48C
:10074000004FF9D02046FFF785FF02B010BD00BF73
:10075000C4570008FEE7FEE7FEE7FEE7FEE7704746
:100760007047704708B502F037FC08BD08B502486D
:1007700000F036FE08BD00BFAC16002082B000219C
:1007800000910B4B5A6C42F480425A645A6C02F44A
:1007900080420092009A01911A6C42F080521A64D1
:1007A0001B6C03F080530193019B02B0704700BFA4
:1007B0000038024030B589B00023039304930593B9
:1007C000069307930268154B9A4201D009B030BDD9
:1007D00000250195124C236B43F002032363236B26
:1007E00003F002030193019BC0230393122304939C
:1007F00001230593032306930423079303A90948C0
:1008000002F05AFA0295236C43F400132364236C1C
:1008100003F400130293029BD8E700BF005400408A
:10082000003802400004024008B500220F49104879
:1008300003F030F970B90F490D4803F042F960B97F
:100840000D490B4804F024F950B9094803F053F955
:1008500048B908BDFFF782FDEDE7FFF77FFDEFE741
:10086000FFF77CFDF1E7FFF779FDF2E700000020DC
:10087000C8010020700000205000002012230B80CF
:10088000004870471C00002004230B80004870477C
:1008900030000020002393421ED200B510E00CF17E
:1008A000370C01F813C000014FEA430C0CF1010CA6
:1008B0004FF0000E01F80CE00133DBB2934209D295
:1008C0004FEA107CB0F1204FE9D20CF1300C01F866
:1008D00013C0E8E75DF804FB7047000038B50B4B28
:1008E000D3F8100AD3F8144AD3F8183AC01800D134
:1008F00038BD074D0822A91CFFF7CCFF042205F1E3
:1009000012012046FFF7C6FFF2E700BF0070FF1F8D
:100910003400002008B51A230B80FFF7DFFF0148E1
:1009200008BD00BF3400002008B50A4628B90549B3
:10093000054803F02CFE034808BD0249024803F0B5
:1009400026FEF8E7A4040020D857000810B50A4690
:10095000034C2146034803F01AFE204610BD00BF99
:10096000A4040020F057000808B50A4628B9054934
:10097000054803F00CFE034808BD0249024803F095
:1009800006FEF8E7A40400200458000808B50A464B
:1009900028B90549054803F0FAFD034808BD024996
:1009A000024803F0F4FDF8E7A40400201058000802
:1009B00000207047202803D0212811D00020704744
:1009C0000A780F4B1A704A785A708A789A70CA78E7
:1009D000DA700A791A714A795A718A799A71EDE74F
:1009E000074B1A780A705A784A709A788A70DA78BF
:1009F000CA701A790A715A794A719B798B71DDE74D
:100A0000A41600200020704710B50146044C204673
:100A100004F057F8204604F07DF8002010BD00BF18
:100A2000C801002010B5064C00220649204604F0FB
:100A30003AF80549204604F044F8002010BD00BFF4
:100A4000C8010020A40E0020A4060020094BD3F802
:100A5000BC32D3F814320BB10120704710B5054CED
:100A60000A460146204604F01EF8204604F035F8F8
:100A700010BD00BFC801002030B589B0002303932A
:100A800004930593069307930368B3F1A04F01D035
:100A900009B030BD00250195164C236B43F00103CE
:100AA0002363236B03F001030193019B4FF4C053B5
:100AB000039302230493032306930A23079303A9B2
:100AC0000D4802F0F9F8636B43F08003636302950D
:100AD000636C43F480436364636C03F48043029368
:100AE000029B2A462946432002F0DCF9432002F00B
:100AF00011FACDE7003802400000024008B500F2CC
:100B0000C441D0F8080503F00CF808BD08B501EBA6
:100B1000C10300EB8303D3F88C22D0F8080503F05F
:100B2000CDF808BD08B501EBC10300EB8303DA6C17
:100B3000D0F8080503F025F908BD08B5D0F8080578
:100B400003F067F808BD10B50446C3683BB1022B3B
:100B500001D1012104E0FFF701FC012100E00021A7
:100B6000D4F8080503F03BF8D4F8080503F005F8BD
:100B700010BD000010B50446D0F8080503F032F8A7
:100B80002268D2F8003E43F00103C2F8003E236A17
:100B900023B1034A136943F00603136110BD00BF7C
:100BA00000ED00E008B5D0F8080503F025F808BD11
:100BB00008B5D0F8080503F054F808BD08B5D0F81A
:100BC000080503F037F808BD08B5D0F8080503F0AC
:100BD0005FF808BD08B5D0F8080503F05BF808BD5C
:100BE00002780AB10020704710B503461548C0F8D6
:100BF0000835C3F8C8024FF0A043036004234360E4
:100C00000222C260002303618261C3610362436206
:100C1000C362036300F0F0F880B90A4C80212046DB
:100C200000F0E6FE40220021204600F0BBFE8022BC
:100C30000121204600F0B6FE002010BDFFF78EFB1C
:100C4000EBE700BFAC160020D0F8C83211F0800FDF
:100C500008D101F07F0101EBC10103EB810393F89F
:100C60007E02704701F07F0101EBC10103EB8103BC
:100C700093F83E00704708B5D0F8C80200F0DFFADC
:100C800008BD000000487047B81B002070470328CB
:100C900005D8DFE800F005040205012070470320B5
:100CA000704708B5D0F8C80200F03DF9FFF7EFFF34
:100CB00008BD08B594461A466346D0F8C80200F04D
:100CC00011FAFFF7E4FF08BD08B5D0F8C80200F03C
:100CD0004EFAFFF7DCFF08BD08B5D0F8C80200F0F7
:100CE000E6FAFFF7D4FF08BD08B5D0F8C80200F057
:100CF00022FBFFF7CCFF08BD08B5D0F8C80200F012
:100D0000DDF9FFF7C4FF08BD08B5D0F8C80200F050
:100D10009FFAFFF7BCFF08BD08B5D0F8C80200F085
:100D20005FFAFFF7B4FF08BD2DE9F04383B0D0F8B8
:100D3000008001EBC10300EB8303DA6D5B6D9A4227
:100D400054D807460C469B1A01EBC10200EB820205
:100D5000926C9A4200D31A4602F103094FEA9909AC
:100D600015E006F103094FEA990904EBC40507EB06
:100D70008505E96C3B7C0093B3B2E2B2404601F0DA
:100D800006FAEB6C3344EB64EB6D3344EB6508EB34
:100D9000441303F510639B699BB24B4512D304EBDC
:100DA000C40307EB8303DA6D5B6D9A420AD24BB141
:100DB0009B1A04EBC40207EB8202966C9E42D0D3CE
:100DC0001E46CEE704EBC40307EB83077A6DFB6D89
:100DD0009A420FD804F00F040122A240D8F8343808
:100DE00023EA0203C8F83438002000E0012003B0F1
:100DF000BDE8F0830020FAE770B58AB0002800F063
:100E000090800546046890F8BD343BB3032385F811
:100E1000BD34E36B13F4807F01D100232B6128687C
:100E200000F0D2FE2C4654F8106BEC460FCCACE828
:100E30000F000FCCACE80F0094E803008CE803002F
:100E40002B1D0ECB304600F001FE044658B10223A4
:100E500085F8BD34012420460AB070BD80F8BC344A
:100E6000FFF70AFED2E70021286801F09EFB234627
:100E700016E003EBC30205EB8202012182F83D106C
:100E800082F83C30A2F84430002182F8401091648E
:100E9000D16403EBC30205EB820251650133DBB27F
:100EA00069688B42E5D316E004EBC40305EB8303CA
:100EB000002283F87D2283F87C4283F88022C3F8E5
:100EC0008822C3F88C2204EBC40305EB8303C3F828
:100ED00094220134E4B2A142E6D82C4654F8106BB7
:100EE000EC460FCCACE80F000FCCACE80F0094E858
:100EF00003008CE803002B1D0ECB304600F0C0FE33
:100F0000044620B1022385F8BD340124A3E7002361
:100F100085F83830012385F8BD34286801F004FBDA
:100F200099E7012497E7026890F8BC34012B19D0A7
:100F300010B50446012380F8BC34836A012B09D024
:100F4000206800F03BFE206801F0E0FA002084F801
:100F5000BC0410BD8369012BF2D0936B43F4803342
:100F60009363EDE70220704770B504460D460068B4
:100F7000066C00EB411303F530639A68216901297F
:100F800011D038498E4256D03DB905EBC50304EB6C
:100F90008303D3F89432002B5ED0E9B22046FFF7EA
:100FA000B5FD002070BD12F0080F09D02E498E4209
:100FB000F7D912F4004FF4D04FF400429A60F0E7F2
:100FC00012F0200F02D020229A60EAE712F0280FD8
:100FD000E7D125498E4206D912F4004F03D04FF4D1
:100FE00000429A60DDE705EBC50204EB8202D2F80D
:100FF00098121B69C3F31203CB1AC2F89C327DB955
:1010000005EBC50204EB8202D2F894226AB105EB2B
:10101000C50204EB8202D2F88C121944C2F88C1279
:10102000E9B22046FFF772FDBBE704F2C44201219A
:1010300001F0FCFAF4E712F4004F03D04FF4004241
:101040009A60AEE712F0200F01D020229A60E9B238
:101050002046FFF75BFDA4E704F2C442002101F043
:10106000E5FA9AE70A31544F0A30544F38B504462E
:1010700003681D6C03EB4113D3F8081B0E4A95421D
:1010800007D903F5306311F4004F02D04FF400424A
:101090009A602046FFF732FD074B9D4202D9236933
:1010A000012B01D0002038BD04F2C4420121206888
:1010B00001F0BCFAF6E700BF0A30544F90F8BC3498
:1010C000012B0DD010B50446012380F8BC3480F804
:1010D0003810006801F00AFA002084F8BC0410BD42
:1010E0000220704738B505468C4611F0800F29D193
:1010F00001F00F0E0EEBCE04A40004F51E740444A0
:10110000211D0EEBCE0E00EB8E0E00208EF87D0220
:101110000CF00F0C81F800C0CA600B714A780AB15C
:10112000A1F808C0022B1DD095F8BC34012B1CD0AF
:10113000012385F8BC34286800F07BFE002085F888
:10114000BC0438BD01F00F0000EBC001890038314C
:101150002944043100EBC00005EB8000012480F835
:101160003D40D5E700234B71DEE70220E9E710B5EB
:1011700004460A4611F0800F20D101F00F0000EB69
:10118000C0039B0003F51E732344191D00EBC00030
:1011900004EB8000002380F87D3202F00F020A7019
:1011A00094F8BC34012B19D0012384F8BC34206896
:1011B00000F08CFE002084F8BC0410BD01F00F008C
:1011C00000EBC0039B0038332344191D00EBC00023
:1011D00004EB8000012380F83D30DEE70220ECE7DD
:1011E00010B501F00F0404EBC401890001F51E7174
:1011F0000144043104EBC40C00EB8C0CCCF88C22C1
:10120000CCF894320023CCF89C328CF87D328CF8E8
:101210007C420369012B06D064B9DAB2006800F0A1
:10122000C5FE002010BD04EBC40C00EB8C0CCCF808
:101230009022F1E7DAB2006800F0C0FFF1E701F0B8
:101240000F0101EBC10100EB8100D0F89C02704757
:1012500010B501F00F0404EBC401890038310144DA
:10126000043104EBC40C00EB8C0CCCF84C20CCF813
:1012700054300023CCF85C3001238CF83D308CF8DE
:101280003C400369012B06D064B9DAB2006800F073
:101290008DFE002010BD04EBC40C00EB8C0CCCF8D0
:1012A0005020F1E7DAB2006800F088FFF1E738B5C6
:1012B00001F00F054268954239D804460B4611F0FB
:1012C000800F1FD101EBC101890001F51E7101449E
:1012D000043103EBC30300EB8303002283F87D2278
:1012E00001238B700D7094F8BC34012B21D00123A5
:1012F00084F8BC34206801F09EF88DB1002084F899
:10130000BC0438BD05EBC501890038310144043106
:1013100005EBC50300EB8303012283F83D20DFE7E3
:1013200004F2C442217C206801F080F9E6E7012044
:10133000E7E70220E5E701F00F034268934231D866
:1013400010B5044611F0800F1ED103EBC3018900D4
:1013500001F51E710144043103EBC30200EB82026C
:10136000002082F87D0200228A700B7094F8BC3451
:10137000012B19D0012384F8BC34206801F088F8CF
:10138000002084F8BC0410BD03EBC3018900383190
:101390000144043103EBC30200EB8202012082F816
:1013A0003D00E0E7012070470220ECE708B511F0AE
:1013B000800F0CD101F00F0101EBC101890001F593
:1013C0001E7101440431006800F082FE08BD01F086
:1013D0000F0101EBC1018900383101440431F2E70A
:1013E0002DE9F04F83B004460568284601F0D9F88E
:1013F00010B103B0BDE8F08F0646206801F0A2F8F6
:101400000028F6D005F50067BB68C3F30D23C4F8C8
:10141000FC34206801F096F810F0020F04D0226826
:10142000536903F002035361206801F08BF810F058
:10143000100F13D02268936923F010039361D5F83D
:10144000208008F00F09C8F34343022B4BD0062B32
:101450006FD02268936943F010039361206801F014
:1014600071F810F4002F76D1206801F06BF810F4B9
:10147000802F40F0E080206801F064F80028C0F27E
:101480006381206801F05EF810F4006F09D0BB683A
:1014900013F0010F40F070812268536903F4006378
:1014A0005361206801F04EF810F4805F40F06881CD
:1014B000206801F047F810F4005F40F0B581206823
:1014C00001F040F810F0080F40F0C681206801F0EC
:1014D00039F810F0800F00F0D981AB6923F0800358
:1014E000AB610126C2E147F6F07318EA030FB0D0F2
:1014F0004FEA181B4FEAC903019309EBC90A04EB31
:101500008A0AC8F30A12DAF88C12284600F070FF33
:10151000CBF30A0BDAF88C325B44CAF88C32019BAD
:101520004B4404EB8303D3F89C325B44CAF89C32EF
:101530008FE7082204F2C441284600F059FFC8F39F
:101540000A1809EBC90204EB8202D2F89C32434428
:10155000C2F89C327DE7206800F0F8FF8046B14673
:1015600035E005EB49130122C3F8082B4946204614
:10157000FFF7FAFC3CE005EB49130822C3F8082BFF
:1015800049462046FFF772FD35E009EBC90304EB3D
:10159000830393F87F32012B41D005EB49130222DC
:1015A000C3F8082B1AF0200F04D005EB49132022B2
:1015B000C3F8082B1AF4005F05D005EB49134FF46C
:1015C0000052C3F8082B09F101094FEA5808B8F195
:1015D000000F3FF449AF18F0010FF4D05FFA89FB18
:1015E0005946206800F0C2FF824610F0010FB8D1C2
:1015F0001AF0080FBFD11AF0100F04D005EB4913F1
:101600001022C3F8082B1AF0020FCBD06B6913F02D
:10161000800FBAD07B6843F480637B60B5E709EB49
:10162000C90304EB8303002283F87F225946204636
:10163000FFF7BEFAB1E7206800F090FF8046B146A0
:1016400025E059462046FFF76DFA1AF0080F04D03E
:1016500005EB49130822C3F808291AF0100F04D02B
:1016600005EB49131022C3F808291AF0400F04D0E3
:1016700005EB49134022C3F808291AF0020F40D1A4
:101680001AF0800F5BD109F101094FEA5808B8F14F
:10169000000F3FF4F0AE18F0010FF4D05FFA89FBB1
:1016A0005946206800F06BFF824610F0010FCCD045
:1016B00009F00F02012101FA02F27B6B23EA020317
:1016C0007B6305EB4913C3F8081923698B42B8D132
:1016D00009EBC90304EB8303996CDA6C0A44DA64FE
:1016E000B9F1000FADD109EBC90304EB83035B6DC6
:1016F000002BA6D104F2C4420121206800F096FF1D
:101700009FE74946284600F065FA09EBC90304EB58
:10171000830393F83F30012B05D005EB49130222D8
:10172000C3F80829ACE709EBC90304EB83030022E3
:1017300083F83F2059462046FFF740FAEDE7494637
:101740002046FFF7F1FA9EE77B6823F001037B60F8
:1017500094F8F434012B08D02046FFF723FA2268CE
:10176000536903F0004353618BE6002184F8F414BD
:10177000204600F041F9F2E72046FFF7FBF98BE63F
:101780007B6823F001037B601021206800F022FABF
:101790001AE005EB46134FF67F31C3F80819D3F86A
:1017A000002922F40012C3F80029C3F8081BD3F85B
:1017B000002B22F40012C3F8002BD3F8002B42F0C8
:1017C0000062C3F8002B01366368B342E1D8FB69BD
:1017D00043F00113FB61236BDBB1D7F8843043F096
:1017E0000B03C7F884307B6C43F00B037B64D5F8A4
:1017F000003823F4FE63C5F8003804F2C442217CAB
:10180000206800F013FF2268536903F4805353618A
:101810004EE67B6943F4005343F02B037B613B6945
:1018200043F00B033B61E2E7206800F0EFFE206825
:1018300000F0EEFAE060266801F028FA0146227B0B
:10184000304600F049F92046FFF77DF922685369D8
:1018500003F40053536132E62046FFF76EF9226825
:10186000536903F00803536130E601366368B342FD
:101870000CD906EBC60304EB830393F87F32012BEC
:10188000F3D1F1B22046FFF791FDEEE7206800F0BA
:1018900059FE10F4801F27D1206800F053FE10F489
:1018A000001F5BD0012328E001366368B3421DD9D5
:1018B00005EB4613D3F8002906EBC60304EB8303BC
:1018C00093F84030012BEFD1002AEDDA06EBC60386
:1018D00004EB8303012283F83F2066F07F01C9B245
:1018E0002046FFF763FDDFE70126DEE72268536944
:1018F00003F480135361CFE7013362689A4228D919
:1019000005EB4312D2F8001B03EBC30204EB820287
:1019100092F88022012AEFD10029EDDA01F480311A
:10192000D4F8FC2402F001029142E5D103EBC3029A
:1019300004EB8202012182F87F12AA6942F0800240
:10194000AA616A6912F0800FD6D17B6843F40073F4
:101950007B602268536903F400135361206800F030
:10196000F1FD10F0804F10D1206800F0EBFD10F079
:10197000040F3FF43EAD23685D6815F0040F0DD1F0
:10198000226853682B43536033E52046FFF71CF968
:101990002268536903F080435361E5E72046FFF76F
:1019A00019F9EDE710B40468606A31B940EA024001
:1019B000A06200205DF8044B70478C46A36A00EBE0
:1019C0001340002308E003F1400104EB8101496862
:1019D00000EB11400133DBB20CF1FF318B42F2D34B
:1019E00040EA02400CF13F0104EB81046060E0E753
:1019F00003685962002070477047000082B00023DE
:101A00000193019B01330193019A0F4B9A4215D820
:101A10000369002BF5DA00230193036943F0010306
:101A20000361019B01330193019A074B9A4208D845
:101A3000036913F0010FF4D1002000E0032002B08D
:101A400070470320FBE700BF400D030084B010B5D2
:101A5000044603A880E80E00089B012B1FD1A36B4E
:101A600023F48033A363E36823F4840323F0400367
:101A7000E360E36823F44013E3600F9B012B09D07C
:101A80002046FFF7BBFF069B012B1BD0BDE8104093
:101A900004B07047E36843F48013E360F0E7E36861
:101AA00043F04003E3602046FFF7A8FF0C9B23B9F7
:101AB000A36B43F48033A363E5E7A36B23F4803384
:101AC000A363E0E7A36843F00603A360A36843F0C1
:101AD0002003A360DAE70000022A0AD00922C368C3
:101AE00023F47053C360C36843EA8223C3600020B9
:101AF0007047234B0B44234A93422FD9224B0B446C
:101B0000224A93422CD9A1F57403A3F51053204A1D
:101B1000934227D9A1F18373A3F5E7431D4A93426A
:101B200022D31D4B0B441D4A93421FD91C4B0B441F
:101B30001C4A93421CD31C4B0B441C4A934219D39E
:101B4000A1F1B773A3F55853194A934214D3194B13
:101B50000B44194A934211D20722C0E70F22BEE775
:101B60000E22BCE70D22BAE70C22B8E70B22B6E73B
:101B70000A22B4E70922B2E70822B0E70622AEE75C
:101B8000405327FFFF340C00401E1BFF3F420F0055
:101B90007F4F120020D6130060B6E5FE5FE316000B
:101BA00000D3CEFE40771B00C05BB3FEC091210086
:101BB00020753800E05459FEE09C4100836843F0F2
:101BC0000103836000207047836823F00103836072
:101BD0000020704782B000230193019B01330193E1
:101BE000019A0F4B9A4215D80369002BF5DA0023AE
:101BF0000193890141F020010161019B01330193AF
:101C0000019A074B9A4208D8036913F0200FF4D1C8
:101C1000002000E0032002B070470320FBE700BF74
:101C2000400D030082B000230193019B0133019317
:101C3000019A0E4B9A4213D80369002BF5DA002360
:101C4000019310230361019B01330193019A074B18
:101C50009A4208D8036913F0100FF4D1002000E075
:101C6000032002B070470320FBE700BF400D0300D4
:101C7000D0F800381943C0F8001800207047000061
:101C800084B02DE9F041044607A880E80E00002347
:101C900006E003F1400204EB8202002151600133AF
:101CA0000E2BF6D9119F27BBD4F8043843F002035A
:101CB000C4F80438A36B43F40013A363A36B23F4A9
:101CC0000023A363A36B23F48023A3630023C4F83E
:101CD000003E04F50065D4F80038C4F800380C9BC9
:101CE000012B14D1099B6BB900212046FFF7C0FFDF
:101CF00011E0A36B23F40013A363A36B43F400234D
:101D0000A363E3E701212046FFF7B2FF03E00321CD
:101D10002046FFF7ADFF10212046FFF75BFF80460E
:101D200008B14FF001082046FFF77CFF08B14FF0E3
:101D3000010800232B616B61EB610AE0C3B94FF02E
:101D40000060C2F8000900220A614FF67F328A6003
:101D500001330799994210D904EB431202F510613F
:101D6000D2F800090028E9DB0020C2F80009EAE700
:101D70004FF09040C2F80009E5E700230AE0C3B144
:101D80004FF0904CC2F800CB002202614FF67F3238
:101D900082600133994211D904EB431202F530609D
:101DA000D2F8006B002EEADB4FF0000CC2F800CB3B
:101DB000EAE74FF0006CC2F800CBE5E72B6923F4AB
:101DC00080732B610023A3616FF0804363610A9BE2
:101DD0001BB9A36943F01003A361A2690B4B134322
:101DE000A3610D9B1BB1A36943F00803A361012FFD
:101DF00004D04046BDE8F04104B07047A36943F009
:101E0000804343F00403A361F3E700BF00383C8044
:101E1000D0F8083813F0060307D0022B07D0062BA2
:101E200001D00F2070470220704700207047022029
:101E3000704710B591F800C04B78012B23D000F506
:101E4000006ED0F81C380CF00F040122A24043EAC7
:101E50000243C0F81C3800EB4C10D0F8003B13F4E0
:101E6000004F0ED1D0F8003BCA68C2F30A020979CC
:101E700042EA8142134343F0805343F40043C0F8E5
:101E8000003B002010BDD0F81C280CF00F0E03FA08
:101E90000EF39BB21343C0F81C3800EB4C10D0F883
:101EA000003913F4004FECD1D0F80039CA68C2F3FE
:101EB0000A02097942EA814242EA8C52134343F012
:101EC000805343F40043C0F80039DAE730B40B78AC
:101ED0004A78012A26D000EB4313D3F8002B002ABE
:101EE00052DBD0F83C480A7802F00F024FF0010CA8
:101EF0000CFA02F224EA0242C0F83C28D0F81C286E
:101F0000097801F00F010CFA01FC22EA0C42C0F83A
:101F10001C28D3F8001B234A0A40C3F8002B0020DA
:101F200030BC704700EB4313D3F80029002A1EDBB6
:101F3000D0F83C580A7802F00F02012404FA02F2A9
:101F400092B225EA0202C0F83C28D0F81C28097891
:101F500001F00F018C40A4B222EA0402C0F81C2850
:101F6000D3F80019104A0A40C3F80029D7E7D3F87C
:101F7000002942F00062C3F80029D3F8002942F09A
:101F80008042C3F80029D3E7D3F8002B42F0006267
:101F9000C3F8002BD3F8002B42F08042C3F8002B8B
:101FA0009FE700BF0078F3EF007833EC70B40B7854
:101FB0004C78012C29D000EB431000F530631C69EC
:101FC000E40CE4041C611C6924F0FF5424F4C014E4
:101FD0001C618C690CB1CC688C61CC68CC611C69CB
:101FE00044F400241C611C69CD69C5F3120C44EA59
:101FF0000C041C61012A66D0D0F8003B43F0044376
:10200000C0F8003B002070BC70478C696CBB00EBD3
:102010004314D4F8105925F0FF5525F4C015C4F821
:102020001059D4F8105945F40025C4F81059D4F8C3
:102030001059ED0CED04C4F81059012A34D000EB0E
:102040004313D3F8002942F00442C3F800298B69F6
:10205000002BD7D0D0F83438097801F00F010122D5
:102060008A401343C0F83438CCE700EB431404F53E
:1020700010642569ED0CED042561256925F0FF55F7
:1020800025F4C0152561CD688E69AE4200D98D61F9
:10209000256945F40025256125698E69C6F3120C72
:1020A00045EA0C052561C8E74A691AB100EB4311FE
:1020B000C1F8142900EB4313D3F8002942F004427D
:1020C000C3F800299EE70A69002A95D05A6193E770
:1020D00010B483B0024600230193487801280BD046
:1020E0000B7802EB4313D3F8000B00282DDB002004
:1020F00003B05DF8044B70470B7802EB4313D3F841
:102100000049002C01DB0020F2E7D3F8004944F03D
:102110000064C3F800490B7802EB4313D3F800497D
:1021200044F08044C3F80049019B01330193019CB2
:1021300042F210739C42DBD80B7802EB4313D3F8C6
:102140000039002BF0DB0020D2E7D3F8000B40F081
:102150000060C3F8000B0B7802EB4313D3F8000BBD
:1021600040F08040C3F8000B019B013301930198BC
:1021700042F21073984208D80B7802EB4313D3F85D
:10218000003B002BF0DB0020B2E70120B0E710B5E8
:102190009DF8084084B903334FEA930E4FF0000CCA
:1021A00008E000EB023303F5805351F8044B1C6048
:1021B0000CF1010CF445F4D3002010BDF0B583B050
:1021C0000B784C78012C33D000EB431303F5306CC3
:1021D000DCF81040E40CE404CCF81040DCF81040CB
:1021E00024F0FF5424F4C014CCF810408C69002C67
:1021F00040F0C780DCF81040CD68C5F312052C43D1
:10220000CCF81040DCF8104044F40024CCF8104026
:10221000012A00F0D0800A79012A00F0D380D3F897
:10222000002B42F00442C3F8002B002003B0F0BDA5
:102230008C6984BB00EB4314D4F8105925F0FF558A
:1022400025F4C015C4F81059D4F8105945F40025E8
:10225000C4F81059D4F81059ED0CED04C4F8105915
:10226000012A4CD000EB4313D3F8004944F0044456
:10227000C3F800490C79012C6AD08B69002BD4D0AB
:10228000D0F83438097801F00F0101228A40134355
:10229000C0F83438C9E700EB4314D4F81059ED0CFA
:1022A000ED04C4F81059D4F8105925F0FF5525F461
:1022B000C015C4F81059D4F810698D69CF683D4431
:1022C000013DB5FBF7F5494F07EAC5453543C4F86D
:1022D0001059D4F810598E69C6F312063543C4F864
:1022E000105904F510640D79012DB9D1256925F037
:1022F000C0452561256945F000552561B0E74A696B
:102300001AB100EB4314C4F814290A79012A08D041
:1023100000EB4313D3F8002942F00442C3F800292C
:1023200083E7D0F8082812F4807F08D100EB43112E
:10233000D1F8002942F00052C1F80029E8E700EB8B
:102340004311D1F8002942F08052C1F80029DFE79B
:10235000D0F8084814F4807F0CD1D3F8004944F039
:102360000054C3F8004900920B8B0A780969FFF703
:102370000EFF5AE7D3F8004944F08054C3F80049EF
:10238000F1E7CD682C44013CB4FBF5F4A4B204FBA6
:1023900005F5CD61DCF81050144E06EAC4442C4318
:1023A000CCF81040DCF81040CD69C5F312052C4381
:1023B000CCF810402CE70A69002A3FF42CAFCCF887
:1023C000142028E7D0F8082812F4807F06D1D3F82B
:1023D000002B42F00052C3F8002B20E7D3F8002B6B
:1023E00042F08052C3F8002B19E700BF0000F81F2D
:1023F00010B5844608464FEA920E02F0030200230D
:1024000005E00CF58051096840F8041B0133734561
:10241000F7D37AB10CF5805CDCF800400021CBB238
:10242000DB0024FA03F300F8013B0131013A92B2D8
:10243000002AF4D110BD0B784A78012A14D000EBA1
:102440004310D0F8002B002A06DB2BB1D0F8003B5C
:1024500023F08043C0F8003BD0F8003B43F4001366
:10246000C0F8003B0020704700EB4310D0F8002973
:10247000002A06DB2BB1D0F8003923F08043C0F8E6
:102480000039D0F8003943F40013C0F80039E9E707
:102490000B784A78012A0ED000EB4310D0F8003BAD
:1024A00023F40013C0F8003B0B79023BDBB2012B95
:1024B00015D90020704700EB4310D0F8003923F401
:1024C0000013C0F800390B79023BDBB2012BF0D8C6
:1024D000D0F8003943F08053C0F80039E9E7D0F86C
:1024E000003B43F08053C0F8003BE2E7D0F80038EF
:1024F00023F4FE63C0F80038D0F80038090101F475
:10250000FE610B43C0F8003800207047D0F8003E51
:1025100023F00303C0F8003ED0F8043823F0020390
:10252000C0F8043800207047D0F8003E23F00303C1
:10253000C0F8003ED0F8043843F00203C0F8043875
:10254000002070474269806910407047D0F8183801
:1025500000F50060C0691840000C7047D0F81838CA
:1025600000F50060C069184080B2704700EB41116F
:10257000D1F8082B00F50060406910407047D0F892
:102580001028D0F8343801F00F0C23FA0CF3DB01DB
:10259000DBB2134300EB411000F510608068184077
:1025A0007047406900F00100704738B50546C368C0
:1025B00023F0C043C360012913D019BBC36843F0A3
:1025C0008043C3600024012000F018FD0134284638
:1025D000FFF7E7FF08B1312CF5D9322C14D00020D9
:1025E00038BDC36843F00053C3600024012000F0ED
:1025F00005FD01342846FFF7D4FF0128EDD0312C2A
:10260000F4D9EAE70120EBE70120E9E7D0F8003947
:1026100023F4FF6323F00703C0F80039D0F804382F
:1026200043F48073C0F804380020704710B4046C81
:10263000154B9C4203D9D0F8003B002B16DB00243D
:10264000C0F8104BD0F8104B44F40024C0F8104BE5
:10265000D0F8104B44F01804C0F8104BD0F8104BD1
:1026600044F0C044C0F8104B012903D000205DF8AD
:10267000044B7047C0F8142BD0F8003B43F0802384
:10268000C0F8003BF2E700BF0A30544F002800F0CA
:10269000E08170B582B00446036813F0010F3BD0AF
:1026A0009F4B9B6803F00C03042B2CD09C4B9B6826
:1026B00003F00C03082B21D06368B3F5803F4FD0A3
:1026C000B3F5A02F52D0964B1A6822F480321A60CC
:1026D0001A6822F480221A606368002B50D000F040
:1026E00087FC05468E4B1B6813F4003F14D100F0A5
:1026F0007FFC401B6428F5D90320B1E1884B5B685F
:1027000013F4800FD8D0864B1B6813F4003F03D01E
:102710006368002B00F09F81236813F0020F54D0F0
:102720007F4B9B6813F00C0F3ED07D4B9B6803F0F2
:102730000C03082B33D0E368002B68D0794B0122BF
:102740001A6000F055FC0546754B1B6813F0020F2C
:1027500054D100F04DFC401B0228F5D903207FE145
:102760006F4A136843F480331360B5E76C4B1A6803
:1027700042F480221A601A6842F480321A60ABE791
:1027800000F036FC0546664B1B6813F4003FC3D0CF
:1027900000F02EFC401B6428F5D9032060E1604B5B
:1027A0005B6813F4800FC6D15D4B1B6813F0020FFA
:1027B00003D0E368012B40F05081594A136823F09D
:1027C000F803216943EAC1031360236813F0080F7B
:1027D00042D063696BB3534B0122C3F8802E00F0E3
:1027E00007FC05464E4B5B6F13F0020F34D100F02F
:1027F000FFFB401B0228F5D9032031E1484A13684A
:1028000023F0F803216943EAC1031360DDE7454B78
:1028100000221A6000F0ECFB0546414B1B6813F0E8
:10282000020FD2D000F0E4FB401B0228F5D90320B0
:1028300016E13C4B0022C3F8802E00F0D9FB054680
:10284000374B5B6F13F0020F06D000F0D1FB401B3B
:102850000228F5D9032003E1236813F0040F77D091
:102860002F4B1B6C13F0805F33D1002301932C4B53
:102870001A6C42F080521A641B6C03F0805301936F
:10288000019B0125284B1B6813F4807F23D0A3688C
:10289000012B34D0052B38D0214B1A6F22F00102C6
:1028A0001A671A6F22F004021A67A368002B3DD042
:1028B00000F09EFB06461A4B1B6F13F0020F46D129
:1028C00000F096FB801B41F288339842F3D9032035
:1028D000C6E00025D6E7144A136843F480731360FA
:1028E00000F086FB0646104B1B6813F4807FCED1A8
:1028F00000F07EFB801B0228F5D90320B0E0084AD7
:10290000136F43F001031367CFE7054B1A6F42F0D3
:1029100004021A671A6F42F001021A67C5E700BF86
:1029200000380240000047420070004000F060FBA9
:102930000646524B1B6F13F0020F08D000F058FBF5
:10294000801B41F288339842F3D9032088E0EDB927
:10295000A369002B00F08380484A926802F00C02C1
:10296000082A51D0022B17D0454B00221A6600F0DE
:102970003FFB0446414B1B6813F0007F42D000F040
:1029800037FB001B0228F5D9032069E03B4A136C92
:1029900023F080531364DBE7394B00221A6600F002
:1029A00027FB0546354B1B6813F0007F06D000F06F
:1029B0001FFB401B0228F5D9032051E0E369226A7E
:1029C0001343626A43EA8213A26A5208013A43EA55
:1029D0000243E26A43EA0263284A5360284B012219
:1029E0001A6600F005FB0446244B1B6813F0007FB9
:1029F00006D100F0FDFA001B0228F5D903202FE0D4
:102A000000202DE000202BE0012B2BD01B4B5B681E
:102A100003F48001E269914226D103F03F02216A6A
:102A20008A4223D1616A47F6C0721A40B2EB811F15
:102A30001ED103F44031A26A5208013AB1EB024FB1
:102A400018D103F07063E26AB3EB026F14D1002077
:102A500006E001207047012002E0012000E0002094
:102A600002B070BD0120FBE70120F9E70120F7E784
:102A70000120F5E70120F3E70120F1E700380240EB
:102A80000000474208B5264B9B6803F00C03042B5B
:102A900041D0082B41D1224B5A6802F03F025B68BB
:102AA00013F4800F12D01E4B5968C1F388111D48D2
:102AB0000023A1FB0001FDF7CBFB194B5B68C3F3BF
:102AC000014301335B00B0FBF3F027E0144B58687F
:102AD000C0F388104FEA401CBCEB000C6EEB0E0EEE
:102AE0004FEA8E1343EA9C634FEA8C11B1EB0C0161
:102AF00063EB0E03DB0043EA5173C90011EB000CDA
:102B000043F10003990200234FEA8C2041EA9C51D3
:102B1000FDF79EFBD1E7034800E0034808BD00BF76
:102B20000038024040787D010024F400002800F0C5
:102B30009B8070B50D4604464F4B1B6803F007039E
:102B40008B4208D2CBB24C4A1370136803F00703D0
:102B50008B4240F08B80236813F0020F17D013F0E4
:102B6000040F04D0454A936843F4E053936023680C
:102B700013F0080F04D0414A936843F46043936014
:102B80003E4A936823F0F003A1680B4393602368E7
:102B900013F0010F32D06368012B21D09A1E012A55
:102BA00025D9364A126812F0020F61D033498A687B
:102BB00022F0030213438B6000F01AFA06462F4BF3
:102BC0009B6803F00C036268B3EB820F16D000F031
:102BD0000FFA801B41F288339842F0D9032042E07B
:102BE000264A126812F4003FE0D101203BE0234A5C
:102BF000126812F0007FD9D1012034E01E4B1B680F
:102C000003F00703AB4207D9EAB21B4B1A701B68EB
:102C100003F00703AB422DD1236813F0040F06D055
:102C2000164A936823F4E053E1680B4393602368EA
:102C300013F0080F07D0114A936823F46043216909
:102C400043EAC1039360FFF71DFF0C4B9B68C3F37E
:102C500003130B4AD35CD8400A4B18600A4B186820
:102C600000F07AF9002070BD012070470120FAE7DA
:102C70000120F8E70120F6E7003C0240003802405E
:102C8000205800086C00002068000020014B1868E4
:102C9000704700BF6C00002008B5FFF7F7FF044B3A
:102CA0009B68C3F38223034AD35CD84008BD00BFAE
:102CB000003802403058000800230F2B00F2D78064
:102CC00070B582B065E085684FEA430E032404FACC
:102CD0000EF425EA0405CC6804FA0EF42C43846053
:102CE000446824EA02044A68C2F300129A4022436C
:102CF00042605CE0DC08083450F8242003F007054B
:102D0000AD004FF00F0E0EFA05FE22EA0E0E0A6914
:102D1000AA4042EA0E0240F824205CE0042200E0CF
:102D2000002202FA0EF22A430234514D45F82420C3
:102D3000504A94686FEA0C0224EA0C054E6816F4B7
:102D4000801F01D04CEA04054A4CA560E46802EA01
:102D500004054E6816F4001F01D04CEA0405454CEA
:102D6000E560646802EA04054E6816F4003F01D08D
:102D70004CEA04053F4C6560246822404D6815F418
:102D8000803F01D04CEA04023A4C226001330F2B01
:102D90006BD801229A400C6804EA020C32EA04045F
:102DA000F4D14C6804F00304013C012C8BD94A682F
:102DB00002F00302032A09D0C4685D000322AA407E
:102DC00024EA02048A68AA402243C2604A6802F0E8
:102DD0000302022A8ED004684FEA430E032202FA4D
:102DE0000EF224EA02044A6802F0030202FA0EF22A
:102DF000224302604A6812F4403FC7D00022019289
:102E00001D4A546C44F480445464526C02F4804271
:102E10000192019A9C08A51C154A52F8255003F00E
:102E2000030E4FEA8E0E0F2202FA0EF225EA020579
:102E3000124A90423FF474AF02F5806290420ED085
:102E400002F5806290420CD002F5806290420AD076
:102E500002F5806290423FF461AF072261E70122F0
:102E60005FE702225DE703225BE702B070BD7047B7
:102E700000380140003C01400038024000000240A0
:102E8000074AD36823F4E0631B041B0C000200F420
:102E9000E060034343F0BF6343F40033D360704703
:102EA00000ED00E000B5194BDB68C3F30223C3F16A
:102EB000070CBCF1040F28BF4FF0040C03F1040E03
:102EC000BEF1060F18D9033B4FF0FF3E0EFA0CFC83
:102ED00021EA0C0199400EFA03FE22EA0E020A438F
:102EE00000280BDB1201D2B200F1604000F5614016
:102EF00080F800235DF804FB0023E5E700F00F00F5
:102F00001201D2B2024B1A54F4E700BF00ED00E008
:102F100014ED00E0002807DB00F01F024009012348
:102F20009340024A42F82030704700BF00E100E0C1
:102F30000138B0F1807F0BD24FF0E0235861054A91
:102F4000F02182F823100020986107221A6170474F
:102F50000120704700ED00E010B504460E4B1A78D2
:102F60004FF47A73B3FBF2F30C4A1068B0FBF3F042
:102F7000FFF7DEFF68B90F2C01D901200AE000221B
:102F800021464FF0FF30FFF78DFF054B1C600020FE
:102F900000E0012010BD00BF640000206C00002094
:102FA0006800002008B50B4B1A6842F400721A60E2
:102FB0001A6842F480621A601A6842F480721A60D9
:102FC0000320FFF75DFF0F20FFF7C6FFFDF7D6FBDD
:102FD000002008BD003C0240034A1168034B1B78E7
:102FE0000B441360704700BFD81D00206400002010
:102FF000014B1868704700BFD81D002038B5044643
:10300000FFF7F6FF0546B4F1FF3F02D0044B1B78F3
:103010001C44FFF7EDFF401BA042FAD338BD00BFB0
:103020006400002003685A6912F4806F01D1002007
:1030300070476FF480625A6100230363202280F896
:103040003D2080F83E30026C42F00402026480F8B9
:103050003C30012070472DE9F04107460D4690466F
:103060001E4624E0FFF7C4FF069BC01AB04200D8FA
:10307000EEB900233B63202287F83D2087F83E30DD
:103080003A6C42F020023A6487F83C3001201EE09E
:103090003B689C6925EA040C1FFA8CFCBCFA8CFC8A
:1030A0004FEA5C1CE04511D1B6F1FF3FDAD1C5F320
:1030B0000743012BECD13B685B6925EA030C1FFA3F
:1030C0008CFCBCFA8CFC4FEA5C1CEBE70020BDE8F2
:1030D000F0812DE9F04105460E46174698463DE041
:1030E0001A6842F400721A602B686FF480625A61A9
:1030F00000232B63202285F83D2085F83E302A6C82
:1031000042F004022A6485F83C30012034E0FFF7E5
:103110006FFFA0EB0800B84200D8FFB900232B6373
:10312000202285F83D2085F83E302A6C42F02002AE
:103130002A6485F83C3001201EE02B689C6926EA51
:103140000404A4B2003C18BF0124A4B12B685A693E
:1031500012F4806FC4D1B7F1FF3FD8D1C6F3074353
:10316000012BEAD12B685C6926EA0404A4B2003C76
:1031700018BF0124E9E70020BDE8F081F0B583B075
:1031800004460D4616461F46C36A082B0DD0012B78
:103190000BD013F5803F08D0036B122B0AD10268C5
:1031A000136843F48073136004E02268136843F4E7
:1031B000807313600097334600224FF001112046C0
:1031C000FFF749FF80B92369B3F5804F16D1236813
:1031D00005F0FE051D613B46324613492046FFF7C8
:1031E00078FFF8B903B0F0BD23681B6813F4807F43
:1031F00002D04FF4007323640320F3E7EB1122683D
:1032000003F0060343F0F00313613B4632460749DF
:103210002046FFF75EFF18B92368EDB21D61DAE7BB
:103220000120DFE70120DDE70200010008000100C6
:103230002DE9F04184B004460D4616461F46C26A89
:1032400001680B6843F480630B60082A0DD0012AE3
:103250000BD012F5803F08D0036B112B0AD1026806
:10326000136843F48073136004E02268136843F426
:10327000807313600097334600224FF001112046FF
:10328000FFF7E9FE98B92369B3F5804F19D1236898
:1032900045F00105EDB21D613B4632462A49204604
:1032A000FFF717FF00284CD104B0BDE8F081236878
:1032B0001B6813F4807F02D04FF400732364032053
:1032C000F2E74FEAE51808F00608236848F0F00234
:1032D0001A613B4632461D492046FFF7FAFE08B107
:1032E0000120E1E72368EDB21D613B4632461649F5
:1032F0002046FFF7EEFE08B10120D5E70022039239
:10330000236859690391996903910399196841F4F4
:1033100080711960009733464FF001112046FFF786
:103320009AFE20B9226848F0F1031361B4E72368DC
:103330001B6813F4807F02D04FF4007323640320D2
:10334000B2E70120B0E700BF020001000800010061
:1033500070B504460D46164623685B6913F0800F6E
:103360001CD12046FFF75EFED0B9B5F1FF3FF3D088
:10337000FFF73EFE801BA84201D8002DECD10023B0
:103380002363202284F83D2084F83E30226C42F0F2
:103390002002226484F83C30012000E0002070BD4F
:1033A0000120FCE770B504460D46164623685B69AC
:1033B00013F0040F1CD12046FFF734FED0B9B5F14D
:1033C000FF3FF3D0FFF714FE801BA84201D8002D69
:1033D000ECD100232363202284F83D2084F83E3082
:1033E000226C42F02002226484F83C30012000E08C
:1033F000002070BD0120FCE770B505460C4616465E
:103400002B68596911F0400F29D1596911F0100F3B
:1034100015D1FFF7EDFD801BA04201D8002CEFD1A4
:1034200000232B63202285F83D2085F83E302A6C4E
:1034300042F020022A6485F83C30012070BD6FF014
:1034400010025A6100232B63202285F83D2085F865
:103450003E302A6C2A6485F83C300120EEE70020DB
:10346000ECE70000002800F0CC8070B5044690F82E
:103470003D30002B77D0242384F83D302268136838
:1034800023F0010313602268136843F400431360C0
:103490002268136823F400431360FFF7FDFB6268A2
:1034A0005A4B9A4264D85A4B98428CBF002301234E
:1034B000002B40F0A8805749A1FB00318B0C2568F8
:1034C0006A6822F03F0242EA91426A6021680A6A11
:1034D00022F03F0266684D4DAE424FD80133134390
:1034E0000B622168CA6922F44F4222F0FF0265682C
:1034F000464B9D424CD8431E6D00B3FBF5F30133A0
:1035000040F6FC70034278D0C3F30B031A43CA6140
:1035100021680B6823F0C003E269206A0243134369
:103520000B6021688B6823F4034323F0FF032269B7
:10353000E068024313438B602168CB6823F0FF03EC
:103540006269A06902431343CB602268136843F0A9
:103550000103136000202064202384F83D302063A1
:1035600084F83E0070BD80F83C30FDF723F982E717
:10357000294B98428CBF0023012399E74FF496759D
:1035800005FB03F3254DA5FB03539B090133A6E778
:10359000A668BEB9431E05EB450CB3FBFCF3013333
:1035A000C3F30B03B3FA83F35B0943BBC6B9431EF2
:1035B00005EB4505B3FBF5F30133C3F30B0343F40C
:1035C0000043A3E7431E05EB850C0CEB8C0CB3FB0F
:1035D000FCF30133C3F30B03B3FA83F35B09E4E7B2
:1035E000431E05EB850505EB8505B3FBF5F30133BC
:1035F000C3F30B0343F4404388E7042386E7012326
:1036000084E7012070470120ACE700BFA0860100DD
:103610007F841E0083DE1B43FF083D00D34D6210F4
:103620002DE9F04385B004460F46914698460C9E1E
:10363000FFF7DEFC054694F83D00C0B2202804D018
:103640000227384605B0BDE8F08300951923012212
:103650004F492046FFF7FFFC002840F0928094F885
:103660003C30012B00F08F80012384F83C3023682C
:103670001A6812F0010F03D11A6842F001021A60B1
:103680002268136823F400631360212384F83D301B
:10369000102384F83E3000232364C4F82490A4F857
:1036A0002A80638D23853B4BE3622B4632463946A5
:1036B0002046FFF763FD0746002866D100230393E9
:1036C00023685A6903929B690393039B11E0236C5F
:1036D000042B01D00127B4E72268136843F4007378
:1036E0001360F7E72A4631462046FFF75BFE0028C5
:1036F0002ED1238D002B36D02A4631462046FFF7A7
:1037000027FE0028E3D1626A236812781A61606A92
:10371000431C6362618D89B2013989B26185238D51
:10372000013B9BB223852268516911F0040FD9D067
:10373000002BD7D043781361636A01336362638DD2
:103740009BB2013B9BB26385238D013B2385C9E777
:10375000236C042B01D0012773E72268136843F41C
:1037600000731360F7E72268136843F40073136073
:10377000202384F83D30002384F83E3084F83C3028
:103780005FE702275DE702275BE7012759E700BFF4
:10379000020010000000FFFF2DE9F04387B004464F
:1037A0000F46914698460E9EFFF722FC054694F878
:1037B0003D00C0B2202804D00227384607B0BDE83B
:1037C000F08300951923012289492046FFF743FC25
:1037D000002840F0458194F83C30012B00F04281F4
:1037E000012384F83C3023681A6812F0010F03D1DA
:1037F0001A6842F001021A602268136823F4006319
:103800001360222384F83D30102384F83E300023D7
:103810002364C4F82490A4F82A80638D2385754B13
:10382000E3622B46324639462046FFF701FD074644
:10383000002840F01981238D5BB9029323685A69EF
:1038400002929A690292029A1A6842F400721A600D
:103850007AE0012B0FD0022B1FD02268136843F4AB
:10386000806313600023059323685A6905929B695E
:103870000593059B68E02268136823F48063136056
:103880000023039323685A6903929A690392039A67
:103890001A6842F400721A6056E02268136823F432
:1038A000806313602268136843F40063136000238D
:1038B000049323685A6904929B690493049B43E030
:1038C0002A4631462046FFF797FD002840F0CE807B
:1038D00023681A69636A1A70636A01336362238D0D
:1038E000013B2385638D9BB2013B9BB263852BE03B
:1038F00000953346002240492046FFF7ACFB0028E4
:1039000040F0B6802268136843F4007313602368A4
:103910001A69636A1A70626A531C6362238D013BE1
:103920002385638D9BB2013B9BB2638523681B6932
:103930005370636A01336362238D013B2385638D7A
:103940009BB2013B9BB26385218D00297FD0032967
:1039500054D80129B4D00229CAD000953346002298
:1039600025492046FFF777FB002840F08380226836
:10397000136823F48063136023681A69636A1A70FA
:10398000636A01336362238D013B2385618D89B2B4
:10399000013989B2618500953346002216492046D7
:1039A000FFF759FB002867D12268136843F40073BE
:1039B000136023681A69636A1A70626A531C63622F
:1039C000238D013B2385638D9BB2013B9BB26385B5
:1039D00023681B695370636A01336362238D013B63
:1039E0002385638D9BB2013B9BB26385ACE700BF2F
:1039F000020010000000FFFF040001002A463146CB
:103A00002046FFF7F9FC002838D123681A69636A59
:103A10001A70626A531C6362238D013B2385638D98
:103A20009BB2013B9BB263852368596911F0040F77
:103A30008AD01B695370636A01336362238D013B33
:103A40002385638D9BB2013B9BB263857CE720237A
:103A500084F83D30002384F83E3084F83C30ACE6F6
:103A60000227AAE60227A8E60127A6E60127A4E680
:103A70000127A2E60127A0E601279EE601279CE692
:103A8000034AD2F8883043F47003C2F88830704794
:103A900000ED00E098B108B503460020C3F8B80275
:103AA000C3F8C402C3F8D00209B1C3F8B4120121AB
:103AB00083F89C121A701846FDF792F808BD03208F
:103AC000704710B582B00023ADF8063089B10446C6
:103AD000C0F8B812CB6A23B10DF106009847C4F8BC
:103AE000D002D4F8D8320133C4F8D832002002B062
:103AF00010BD0320FBE708B5FDF7D3F808BD08B5F6
:103B0000D0F8B83213B11B68984708BD0020FCE715
:103B100008B5D0F8B8325B68984700B908BD0320F3
:103B2000FCE738B5044600F2AA25284600F0C4F99F
:103B30000123C4F89432B4F8B032C4F8983294F83F
:103B4000AA1201F01F03012B0DD0022B10D02BB1B4
:103B500001F080012046FDF7BFF803E0294620462A
:103B600000F080FB38BD2946204600F0B6FBF9E79F
:103B70002946204600F0F3FBF4E7F8B5044601239C
:103B800080F89C320023C0F894324360C0F8A4321D
:103B900080F8A032D0F8B832DBB15B68DBB100212D
:103BA00098470746C8B94023002211462046FDF732
:103BB00080F80126A4F864614025C4F860512B46C2
:103BC000002280212046FDF774F8A684256238463D
:103BD000F8BD0027E7E70027E5E70327E3E70174DF
:103BE0000020704790F89C32DBB280F89D320423AD
:103BF00080F89C320020704790F89C32DBB2042B96
:103C000001D00020704790F89D32DBB280F89C32E2
:103C1000F7E708B590F89C32DBB2032B01D0002007
:103C200008BDD0F8B832002BF9D0DB69002BF6D0F4
:103C30009847F4E708B5D0F8D432AE3350F82320D3
:103C40005AB190F89C32DBB2032B01D0002008BDA2
:103C5000136A23B198470020F9E70320F7E7002013
:103C6000F5E708B5D0F8D432AE3350F823205AB176
:103C700090F89C32DBB2032B01D0002008BD536AC0
:103C800023B198470020F9E70320F7E70020F5E784
:103C90000020704708B5012380F89C32D0F8B83274
:103CA00023B15B680179984710B908BD0020FCE793
:103CB0000320FAE7002070470020704738B504461B
:103CC0000D46002943D11346D0F89422032A01D08F
:103CD000084638BDD0F85C11D0F86021914212D866
:103CE00090F8AA3203F01F03012B17D0022B1CD02F
:103CF000284694F89C32DBB2032B1BD0204600F000
:103D00008FFC2846E5E7891AC0F85C118A4228BF73
:103D10000A46194600F07CFC2846DAE790F8AE1215
:103D2000FFF7C8FF0028E9D1E3E790F8AE12FFF7EC
:103D3000C3FFF7E700F1AE0354F823301A69002AF5
:103D4000DCD0C4F8D4021B6920469847D6E701F0BE
:103D50007F01FFF7B1FF90B994F89C32DBB2032BDF
:103D6000B7D100F1AE0354F823309A69002AB0D0DD
:103D7000C4F8D4029B69294620469847A9E7002049
:103D8000A7E738B504460D4600294BD11346D0F8B5
:103D90009422022A07D094F8A00218B1002384F8D4
:103DA000A032284638BDC269016A8A420ED88A42CA
:103DB00018D094F89C32DBB2032B27D08021204608
:103DC000FCF78AFF204600F036FCE4E7521AC26195
:103DD000194600F006FC00231A4619462046FCF757
:103DE0009BFFD8E783699942E3D8D0F898229342A1
:103DF000DFD20022114600F0F4FB0021C4F8981233
:103E00000B460A462046FCF787FFC4E7D4F8B832D1
:103E1000DA68002AD2D00022C4F8D422DB68204617
:103E20009847CBE741F08001FFF746FF90B994F83F
:103E30009C32DBB2032BB5D100F1AE0354F8233032
:103E40005A69002AAED0C4F8D4025B6929462046DC
:103E50009847A7E70020A5E703780A8813440B805A
:103E6000037818447047428803789A4218D930B5CD
:103E700083B004460D46ADF806306388BDF80620D1
:103E80009A420AD20DF10601FFF7E6FF4378052BAF
:103E9000F3D18378AB42F0D100E0002003B030BD15
:103EA000002070470346002002E00130C0B2013319
:103EB0001A78002AF9D170470B7803704B78437059
:103EC0008B78CA7843EA022343800B794A7943EA24
:103ED000022383808B79CA7943EA0223C380704727
:103EE00010B504468021FCF7F7FE00212046FCF7C0
:103EF000F3FE10BD30B583B004460D460023ADF887
:103F000006304A88130A013B062B00F2AB80DFE83B
:103F100003F0041F33A9A98D9A00D0F8B4321B68AE
:103F20000DF10601007C9847EA88002A00F0A38082
:103F3000BDF80630002B00F099809A4228BF1A463F
:103F4000ADF806200146204600F03EFB03B030BD30
:103F5000037C43B9D0F8B8329B6A0DF1060098474C
:103F600002234370E0E7D0F8B832DB6A0DF10600B7
:103F7000984702234370D7E7D2B2052A52D8DFE828
:103F800002F003101D2A3744D0F8B4325B6823B125
:103F90000DF10601007C9847C6E72946FFF7A0FF10
:103FA000D4E7D0F8B4329B6823B10DF10601007C50
:103FB0009847B9E72946FFF793FFC7E7D0F8B4322F
:103FC000DB6823B10DF10601007C9847ACE7294678
:103FD000FFF786FFBAE7D0F8B4321B6923B10DF1C1
:103FE0000601007C98479FE72946FFF779FFADE778
:103FF000D0F8B4325B6923B10DF10601007C98471B
:1040000092E72946FFF76CFFA0E7D0F8B4329B692E
:1040100023B10DF10601007C984785E72946FFF79B
:104020005FFF93E72946FFF75BFF8FE7037C33B918
:10403000D0F8B8325B6B0DF10600984774E729465B
:10404000FFF74EFF82E7037C43B9D0F8B8321B6B11
:104050000DF1060098470723437065E72946FFF7EF
:104060003FFF73E72946FFF73BFF6FE729462046EE
:10407000FFF736FF6AE7204600F0D2FA66E738B568
:1040800004468B88FBB9CB88EBB94B887F2B1AD8B9
:1040900003F07F0590F89C32DBB2032B0CD080F844
:1040A0009E522946FCF728FE204600F0B9FA35B1A9
:1040B000022384F89C3209E0FFF712FF06E0012397
:1040C00084F89C3202E02046FFF70AFF38BD00006A
:1040D00070B504460E468D782F4B1D70012D10D8FB
:1040E00090F89C32DBB2022B0FD0032B26D0FFF7C7
:1040F000F7FE294B19782046FFF70AFD03252846CD
:1041000070BDFFF7EDFE0325F9E7A5B1456029462F
:10411000FFF7F5FC054638B131462046FFF7E0FED3
:10412000022384F89C32EAE7204600F079FA032360
:1041300084F89C32E3E700F073FAE0E7CDB1416820
:104140008D4225D0C9B2FFF7E3FC134B19786160AB
:104150002046FFF7D4FC0546B0B131462046FFF7B4
:10416000BFFE21792046FFF7D3FC022384F89C325E
:10417000C5E7022380F89C3245602946FFF7C8FC5A
:10418000204600F04DFABAE7204600F049FAB6E7BB
:1041900000F046FA0025B2E7DC1D002008B5CB8808
:1041A000012B0BD190F89C32DBB2022B09D9032BE7
:1041B00009D10122011D00F007FA01E0FFF790FE8E
:1041C00008BD5BB213B9FFF78BFEF9E70146002388
:1041D00041F8083F012200F0F7F9F1E708B590F83F
:1041E0009C32013B022B12D8CB88022B0CD101232D
:1041F000C360D0F8A4320BB10323C360022200F1E4
:104200000C0100F0E1F908BDFFF76AFEFBE7FFF7DC
:1042100067FEF8E708B54B88012B04D0022B07D0C6
:10422000FFF75EFE08BDC0F8A43200F0F9F9F9E727
:104230008B881B0A80F8A03200F0F2F9F2E708B58B
:1042400090F89C32013B022B09D84B88012B00D0FF
:1042500008BD0023C0F8A43200F0E2F9F8E7FFF748
:104260003FFEF5E738B50C7804F06004202C06D04A
:10427000402C04D06CB1FFF733FE002407E0D0F8E7
:10428000D432AE3350F823309B689847044620461A
:1042900038BD4D78092D1DD8DFE805F012191C1620
:1042A0001C08051C0F0BFFF725FEF0E7FFF7E7FEE4
:1042B000EDE7FFF70DFF0446E9E7FFF76FFFE6E7DD
:1042C000FFF78CFF2C46E2E7FFF7A4FFDFE7FFF7DD
:1042D000B6FFDCE7FFF704FED9E770B505460C46EC
:1042E0000B7803F06003202B07D0402B05D023B1BF
:1042F000FFF7F6FD0026304670BD95F89C32013B75
:10430000022B26D82179012905D921462846FFF715
:10431000E7FD0026EFE72846FFF7CCFC68B900F17F
:10432000AE0255F82220916889B1C5F8D40293688D
:10433000214628469847064600E00326E388002BDE
:10434000D9D1002ED7D1284600F06AF9D3E7032649
:10435000F4E721462846FFF7C3FD0026CBE72DE909
:10436000F04106460D468B88DFB20C7804F06004FD
:10437000202C08D0402C06D0DCB1FFF7B1FD002482
:104380002046BDE8F08139463046FFF795FC0446EB
:10439000002840F0F880C6F8D40200F1AE0356F8C9
:1043A00023309B68002BEBD02946304698470446C3
:1043B000E6E791F80180B8F1010F31D0B8F1030FB1
:1043C00005D0B8F1000F67D0FFF78AFDD8E790F865
:1043D0009C32DBB2022B04D0032B12D0FFF780FDFE
:1043E000CEE70FB1802F04D129463046FFF778FD84
:1043F000C6E73946FCF770FC80213046FCF76CFCC0
:10440000BEE74B8823B91FB1802F01D0CB881BB1E9
:10441000304600F005F9B3E73946FCF75DFCF7E7F5
:1044200090F89C32DBB2022B04D0032B12D0FFF7A2
:1044300057FDA5E70FB1802F04D129463046FFF77D
:104440004FFD9DE73946FCF747FC80213046FCF7DD
:1044500043FC95E74B88002B92D117F07F0F17D1C3
:10446000304600F0DDF839463046FFF725FC0028DD
:1044700086D1C6F8D40200F1AE0256F82220926826
:10448000002A00F08280294630469047044677E7AC
:104490003946FCF729FCE3E790F89C22D2B2022AC5
:1044A00005D0032A27D0FFF71BFD444668E70FB16C
:1044B000802F13D113F0800F14D107F07F0707EB83
:1044C0008707B90001F5A8713144043100230B605E
:1044D0000222304600F078F8444651E7FFF700FD2D
:1044E00044464DE707F07F0707EB8707B900103117
:1044F00031440431EAE75BB2002B1FDB07F00F0207
:1045000002EB820200EB8202B2F864211AB3002BA4
:1045100025DB07F07F0303EB83039C0004F5A874FD
:10452000344404340FB1802F22D1002323600222AF
:104530002146304600F048F8444621E707F00F02D4
:1045400002EB820200EB8202928C002ADFD1FFF79D
:10455000C7FC444614E7FFF7C3FC444610E707F0E6
:104560007F0303EB83039C00103434440434D9E705
:1045700039463046FCF768FB10B101232360D6E7CB
:1045800000232360D3E70024FAE60446F8E6D0B11E
:1045900070B50D4616460446FFF784FC431C5B00CD
:1045A0009BB233802B7003236B70022307E0EA5425
:1045B00001345A1CD2B20021A9540233DBB2227852
:1045C000002AF4D170BD704708B513460222C0F826
:1045D00094228361C3610A460021FCF795FB002009
:1045E00008BD08B513460A460021FCF78DFB0020E4
:1045F00008BD08B513460322C0F89422C0F858310C
:10460000C0F85C310A460021FCF786FB002008BD9B
:1046100008B513460A460021FCF77EFB002008BDC2
:1046200008B50422C0F8942200231A461946FCF764
:104630006BFB002008BD08B50522C0F894220023BA
:104640001A461946FCF768FB002008BD10B5D0F8E3
:10465000D43203F1B00250F822408CB100EB82005A
:1046600043687BB194F80002FF280DD09B6894F852
:10467000012221469847FF2384F80032002010BD14
:104680000320FCE70020FAE70020F8E70A23038074
:1046900000487047EC000020F8B506460F4F822115
:1046A0003846FFF7E0FB054601213846FFF7DBFB04
:1046B000044681213846FFF7D6FB0DB11022AA71BE
:1046C0001CB1402222710022627118B14022027195
:1046D00000224271432333800048F8BDA800002027
:1046E000F8B506460F4F82213846FFF7BCFB05465A
:1046F00001213846FFF7B7FB044681213846FFF712
:10470000B2FB0DB11022AA711CB14022227100220D
:10471000627118B14022027100224271432333803A
:104720000048F8BDA8000020F8B506460F4F8221CA
:104730003846FFF798FB054601213846FFF793FB03
:10474000044681213846FFF78EFB0DB11022AA7175
:104750001CB1002222710222627118B10022027182
:1047600002224271432333800048F8BDA800002094
:1047700038B5D0F8D432B03350F8235095B1044650
:10478000FCF779FAC5F80C02D4F8D432B03304EB54
:1047900083046368DB6805F50371D5F80402984764
:1047A000002038BD0320FCE738B5D0F8C852D0F857
:1047B000D432B03350F8234084B301F00F0303EB3D
:1047C000830200EB820292694AB103EBC30C05EB52
:1047D0008C05AD6CB2FBF5FC05FB1C2292B10023ED
:1047E000C4F81432D0F8D432B03300EB83004368FD
:1047F0001B69ABB10A4604F50471D4F80802984766
:10480000002038BD03EB830300EB830300249C618D
:1048100023462246FCF778FA2046F2E70320F0E729
:104820000020EEE7F0B583B0D0F8D43203F1B00247
:1048300050F8227000228DF80720ADF80420002FD8
:104840007BD004460D46097811F0600634D0202E46
:104850006CD1EA882AB311F0800F07D16B7887F802
:104860000032EA883F2A13D8D2B212E0B03300EB0C
:1048700083035B689B68394668789847EA88072A0B
:1048800028BF072239462046FFF79EFE002651E04A
:10489000402287F8012239462046FFF7AAFE00266B
:1048A00048E0B03300EB83035B689B680022294635
:1048B0006878984700263DE06F780B2F31D8DFE805
:1048C00007F006393030303030303030162690F86E
:1048D0009C32DBB2032B04D02946FFF701FB0326F1
:1048E00028E0022201A9FFF76FFE3E4622E090F881
:1048F0009C32DBB2032B04D02946FFF7F1FA0326E2
:1049000018E001220DF10701FFF75EFE12E090F8BA
:104910009C32DBB2032B0DD02946FFF7E1FA0326C8
:1049200008E02946FFF7DCFA032603E02946FFF7F3
:10493000D7FA0326304603B0F0BD0326FAE738B5B0
:1049400004468121FCF7C0F9002525870121204676
:10495000FCF7BAF9A4F8785182212046FCF7B4F9A3
:10496000A4F84C50A4F84E50D4F8D43203F1B0025D
:1049700054F822209AB1B03304EB83035B685B6880
:104980009847D4F8D432B03354F82300FCF77EF9BA
:10499000D4F8D432B03344F82350C4F8BC520020C9
:1049A00038BD70B504464FF40770FCF76BF900286A
:1049B00049D005464FF40772002100F011F9D4F8F0
:1049C000D432B03344F82350C4F8BC52237C002BBB
:1049D00041D14FF40073022281212046FCF769F98E
:1049E000012626874FF40073022231462046FCF749
:1049F00060F9A4F878611023A4F84E30082303224C
:104A000082212046FCF755F90123A4F84C300026FA
:104A1000C5F80462D4F8D432B03304EB83035B6886
:104A20001B689847C5F81462C5F81862D5F80422C7
:104A300062B3257C1DBB4FF4007301212046FCF7B7
:104A40006BF9284670BDD4F8D432B033002244F854
:104A500023200225F5E74023022281212046FCF78E
:104A600028F9012626874023022231462046FCF7FA
:104A700020F9A4F878611023A4F84E30BEE7402353
:104A800001212046FCF748F90025DAE70225D8E79E
:104A900039B1D0F8D432B03300EB8300416000204C
:104AA000704703207047D0F8D432B03350F8233029
:104AB0002BB1C3F80812C3F810220020704703205E
:104AC0007047D0F8D432B03350F823301BB1C3F85C
:104AD0000412002070470320704708B5D0F8D43284
:104AE000B03350F823209AB1D2F814320BB1012020
:104AF00008BD0123C2F81432D2F81032C362D2F8D2
:104B00001032D2F808228121FCF7FEF80020EFE7EE
:104B10000320EDE710B5D0F8D432B03350F823209D
:104B200092B1047C44B94FF40073D2F804220121FD
:104B3000FCF7F2F8204610BD4023D2F804220121F0
:104B4000FCF7EAF80024F5E70324F3E7DFF834D0B4
:104B50000D480E490E4A002302E0D458C4500433D5
:104B6000C4188C42F9D30B4A0B4C002301E01360AC
:104B70000432A242FBD3FEF783FF00F039F8FBF7C3
:104B800061FC7047008001200000002048010020E7
:104B90007C580008480100202C1F0020FEE7000080
:104BA0000EB400B59CB01DAB029006906FF00041B2
:104BB000094807910491094953F8042B05910068AD
:104BC000019302A900F082F9029B00221A701CB026
:104BD0005DF804EB03B07047440100200802FFFFBA
:104BE00002440346934200D1704703F8011BF9E7E2
:104BF00070B50D4D0D4C641BA4100026A64209D1C2
:104C00000B4D0C4C00F0D2FD641BA4100026A642F4
:104C100005D170BD55F8043B98470136EEE755F8CD
:104C2000043B98470136F2E77458000874580008AE
:104C300074580008785800087047704737B5002945
:104C400044D051F8043C0190002BA1F10404B8BFFA
:104C5000E41800F0D5F81E4A0198136833B9636070
:104C6000146003B0BDE8304000F0D0B8A34208D9CA
:104C7000256861198B4201BF19685B684919216079
:104C8000EDE71A465B680BB1A342FAD911685518D3
:104C9000A5420BD1246821445418A3421160E0D1ED
:104CA0001C685B6853600C441460DAE702D90C237B
:104CB0000360D6E7256861198B4204BF19685B68F9
:104CC000636004BF491921605460CAE703B030BD76
:104CD000201F002070B50E4E0C463168054611B9F4
:104CE00000F09CFB30602146284600F097FB431CF7
:104CF0000AD0C41C24F00304A04207D0211A28467D
:104D000000F08CFB013001D14FF0FF34204670BD24
:104D1000241F00202DE9F041CD1C25F003050835A6
:104D20000C2D38BF0C25002D074601DBA94205D903
:104D30000C233B6000263046BDE8F0812F4E00F08A
:104D40005FF833681C4644BB29463846FFF7C2FF6C
:104D5000431C04464FD134682646002E42D1002C15
:104D600043D023683146384604EB030800F056FB75
:104D700080453AD123680335ED1A25F0030508353F
:104D80000C2D38BF0C2529463846FFF7A3FF01300C
:104D90002BD023682B4423600EE02268521B1ED4C4
:104DA0000B2A16D96119A342256018BF59606368A0
:104DB00008BF316062514B60384604F10B0600F0C9
:104DC00025F826F00706231DF21AB4D09B1BA3502A
:104DD000B1E76268A3420CBF32605A60ECE7234639
:104DE0006468B0E734467668B7E70C233B60384622
:104DF00000F00CF89FE72560DEE700BF201F0020D1
:104E00000148FFF719BF00BF1C1F00200148FFF732
:104E100014BF00BF1C1F00202DE9F0478E681F46FD
:104E2000BE420B6882460C4690462CD88A8912F402
:104E3000906F26D06569096905EB4505A3EB01096B
:104E400005EBD5757B1C4B446D109D4238BF1D464C
:104E5000530527D52946FFF75DFF064660B3216954
:104E60004A4600F0EBFAA38923F4906343F08003F1
:104E7000A381266165614E44A5EB09052660A56006
:104E80003E46BE4200D93E4620683246414600F0CA
:104E9000ABFAA3689B1BA360236833442360002004
:104EA000BDE8F0872A4600F0D7FA06460028E0D190
:104EB00021695046FFF7C2FE0C23CAF80030A389CF
:104EC00043F04003A3814FF0FF30E9E72DE9F04FB5
:104ED00098468B891B069DB007460D4614460ED595
:104EE0000B6963B94021FFF715FF2860286120B9DD
:104EF0000C233B604FF0FF30D0E040236B61002378
:104F0000099320238DF82930CDF80C803023DFF869
:104F1000A4818DF82A304FF0010923469A4613F8F0
:104F2000012B0AB1252AF9D1BAEB040B0BD05B4651
:104F3000224629463846FFF76FFF013000F0A9806E
:104F4000099A5A4409929AF80030002B00F0A18087
:104F500000234FF0FF32CDE905230AF1010A049343
:104F600007938DF853301A935446052214F8011B09
:104F70005048FBF71DF9049AD8B9D00644BF202346
:104F80008DF85330110744BF2B238DF853309AF816
:104F900000302A2B15D0079A544600204FF00A0CF7
:104FA000214611F8013B303B092B4DD9B0B1079296
:104FB00014E0A0EB080309FA03F313430493A24699
:104FC000D2E7039B191D1B680391002BBBBF5B42FB
:104FD00042F0020207930793B8BF049223782E2B66
:104FE0000CD163782A2B34D1039B1A1D1B680392C2
:104FF000002BB8BF4FF0FF3302340593DFF8C4A095
:10500000217803225046FBF7D3F838B1049BA0EB7C
:105010000A004022824013430134049314F8011B18
:1050200025488DF828100622FBF7C2F8002838D052
:10503000224B1BBB039B073323F007030833039367
:10504000099B3344099368E70CFB02320C460120AC
:10505000A6E700230134059319464FF00A0C2046B9
:1050600010F8012B303A092A03D9002BC6D005913C
:10507000C4E70CFB012104460123F0E703AB0093D6
:105080002A460F4B04A93846AFF30080421C06465F
:10509000D6D1AB895B063FF52DAF09981DB0BDE8B1
:1050A000F08F03AB00932A46054B04A9384600F065
:1050B00079F8EBE738580008425800080000000073
:1050C000194E00083E5800082DE9F047164699464B
:1050D0008A680B69DDF820809342B8BF13463360BD
:1050E00091F8432007460C460AB101333360236828
:1050F000990642BF336802333360256815F0060510
:1051000006D104F1190AE36832689B1AAB4226DC27
:1051100094F84320131E226818BF012392062BD453
:1051200004F1430249463846C04701301ED0236887
:10513000226903F00603042B02BFE5683368ED1A09
:10514000A3680CBF25EAE57500259342C4BF9B1AEE
:10515000ED1800261A34B5421AD1002008E00123C8
:10516000524649463846C047013003D14FF0FF3020
:10517000BDE8F0870135C6E7E1185A1C302081F8F8
:105180004300224494F8451082F843100233C7E7E5
:105190000123224649463846C0470130E6D0013651
:1051A000D9E700002DE9FF470F7E0C9D782F91462F
:1051B00080460C469A4601F1430207D8622F0AD86E
:1051C000002F00F0D480582F00F0C08004F1420579
:1051D00084F842703AE0A7F16303152BF6D801A1D9
:1051E00051F823F03D52000851520008CD510008FB
:1051F000CD510008CD510008CD5100085152000892
:10520000CD510008CD510008CD510008CD51000806
:10521000555300087D5200080F530008CD51000877
:10522000CD51000877530008CD5100087D52000889
:10523000CD510008CD510008175300082B681A1DE6
:105240001B682A6004F1420584F8423001239FE084
:1052500020682B68070603F10401296001D51E6848
:1052600003E04606FBD5B3F90060002E03DA2D23D8
:10527000764284F843305A480A2312E02B682068AB
:10528000191D2960050601D51E6802E04106FBD5FF
:105290001E8853486F2F0CBF08230A23002184F86F
:1052A00043106568A560002DA2BF216821F00401AC
:1052B00021600EB9002D4BD01546B6FBF3F103FB70
:1052C0001167C75D05F8017D3746BB420E46F4D92C
:1052D000082B0BD12368DE0708D523696168994242
:1052E000DEBF302305F8013C05F1FF35521B22617A
:1052F000CDF800A04B4603AA21464046FFF7E4FE46
:1053000001304AD14FF0FF3004B0BDE8F087236888
:1053100043F0200323603348782784F845702368DE
:1053200029681F0651F8046B02D45F0648BFB6B265
:10533000DF0748BF43F02003296048BF23601EB940
:10534000236823F0200323601023A7E72448E4E721
:105350001546BDE72B6826686169181D286035066B
:105360001B6801D5196002E07006FBD51980002387
:1053700023611546BCE72B681A1D2A601D68626808
:1053800000212846FAF714FF08B1401B60606368EB
:105390002361002384F84330AAE723692A4649465B
:1053A0004046D0470130ADD023689B0713D4E06856
:1053B000039B9842B8BF1846A6E7012332464946E8
:1053C0004046D04701309DD00135E36803995B1A10
:1053D000AB42F2DCEBE7002504F11906F5E700BF6C
:1053E000495800085A580008884210B501EB0204D9
:1053F00002D98442234607D8431EA14208D011F89F
:10540000012B03F8012FF8E7024401468A4200D13C
:1054100010BD13F8014D02F8014DF7E738B5064D00
:105420000023044608462B6000F04EF8431C02D1CE
:105430002B6803B1236038BD181F00200A44914235
:1054400000F1FF3300D1704710B511F8014B03F89C
:10545000014F9142F9D110BD2DE9F041804614462B
:105460000E4621B9BDE8F0411146FFF753BC2AB9F9
:10547000FFF7E4FB25462846BDE8F08100F01BF865
:105480008442074602D8B4EB500F12D8214640465A
:10549000FFF740FC05460028EDD0BC4222463146CD
:1054A00028BF3A46FFF7CAFF31464046FFF7C6FB22
:1054B000E1E73546DFE751F8043C181F002BBCBF7D
:1054C0000B58C01870470000044A05491368002BA8
:1054D00008BF0B461844106018467047281F00206C
:1054E000301F00202DE9F047089E0D4604460F4668
:1054F000002B4AD18A42944665D9B2FA82F343B16D
:1055000002FA03FCC3F120029F4020FA02F2174383
:105510009C404FEA1C4E1FFA8CF5B7FBFEF1220CA3
:105520000EFB117742EA074201FB05F090420AD9CF
:105530001CEB020201F1FF3780F01C81904240F227
:10554000198102396244121AA4B2B2FBFEF00EFBBA
:10555000102244EA024400FB05F5A5420AD91CEBDF
:10556000040400F1FF3280F00781A54240F204817B
:105570006444023840EA0140641B00211EB1DC4053
:105580000023C6E90043BDE8F0878B4208D9002E0E
:1055900000F0ED800021C6E900050846BDE8F0876F
:1055A000B3FA83F1002949D1AB4202D3824200F21F
:1055B000F880841A65EB030201201746002EE2D022
:1055C000C6E90047DFE702B9FFDEB2FA82F3002B3B
:1055D00040F090808A1A4FEA1C471FFA8CFE012186
:1055E000B2FBF7F507FB1520220C42EA00420EFB46
:1055F00005F0904208D91CEB020205F1FF3802D2F7
:10560000904200F2CB804546121AA4B2B2FBF7F0EA
:1056100007FB102244EA02440EFB00FEA64508D90F
:105620001CEB040400F1FF3202D2A64500F2BB805D
:105630001046A4EB0E0440EA05409FE7C1F12007A5
:105640008B4022FA07FC4CEA030C05FA01F420FA1D
:1056500007F3FD404FEA1C492343B5FBF9F81FFA55
:105660008CFE09FB18551C0C44EA054408FB0EF59A
:10567000A54202FA01F200FA01F00BD91CEB040476
:1056800008F1FF3A80F08880A54240F28580A8F1B9
:1056900002086444641B9DB2B4FBF9F309FB134494
:1056A00045EA044403FB0EFEA64508D91CEB04049E
:1056B00003F1FF356CD2A6456AD9023B644443EA44
:1056C0000843A3FB0295A4EB0E04AC42C846AE46C9
:1056D00056D353D056B1B0EB080264EB0E0404FA73
:1056E00007F7CA40CC401743C6E9007418460021AA
:1056F000BDE8F087C3F1200102FA03FC20FA01F2B1
:1057000025FA01F19D402A434FEA1C471FFA8CFEFF
:10571000B1FBF7F007FB1015110C41EA054100FB46
:105720000EF58D4204FA03F408D91CEB010100F1D7
:10573000FF382FD28D422DD902386144491B92B2D5
:10574000B1FBF7F507FB151142EA014205FB0EF12B
:10575000914208D91CEB020205F1FF3816D29142A2
:1057600014D9023D6244521A45EA004138E73146F5
:10577000304608E73946E6E61046FBE64845A9D23A
:10578000B9EB020865EB0C0E013BA3E74546EAE7DF
:105790002B4694E74046D1E7D0467BE7023D624482
:1057A00032E708460AE76444023842E7F8B500BF2A
:1057B000F8BC08BC9E467047F8B500BFF8BC08BCF2
:0457C0009E4670474A
:1057C400000000002564203D202564206D560D0A4C
:1057D4000000000053544D333220566972747561D1
:1057E4006C20436F6D506F727400000053544D6908
:1057F40063726F656C656374726F6E6963730000C6
:1058040043444320436F6E6669670000434443206A
:10581400496E7465726661636500000000000000F3
:10582400000000000102030406070809000000004C
:1058340001020304232D302B2000686C4C006566A4
:1058440067454647003031323334353637383941CD
:1058540042434445460030313233343536373839E3
:085864006162636465660000E7
:08586C0078FCFF7F0100000041
:04587400ED02000839
:04587800C50200085D
:10587C007D080008890800084D090008290900085E
:10588C0015090008690900088D09000812010002B9
:10589C000202004083044057000201020301000091
:1058AC00040309041A0300000000000000000000BB
:1058BC0000000000000000000000000000000000DC
:1058CC00250A0008B1090008B5090008090A0008F2
:1058DC00050A000801000000100000000024F4007C
:1058EC00A34900083F4900082548000800000000B3
:1058FC004D460008A9470008714700080000000049
:10590C00000000000000000029470008E1460008E4
:10591C00994600088D46000809024300020100C0A8
:10592C0032090400000102020100052400100105E7
:10593C00240100010424020205240600010705824B
:10594C000308001009040100020A00000007050109
:10595C000240000007058102400000000A06000218
:10596C00000000400100000000000000E01D0020CD
:10597C00481E0020B01E00200000000000000000A7
:10598C00000000000000000000000000000000000B
:10599C0000000000000000000000000000000000FB
:1059AC0000000000000000000000000000000000EB
:0859BC0000000000F8000020CB
:0400000508004B4D57
:00000001FF
